:020000040003F7
:20C00000F03B0020A5C10300BFC103006DC1030000000000000000000000000000000000B8
:20C02000000000000000000000000000D5C003000000000000000000C5C10300C7C1030054
:20C04000C9C10300C9C10300C9C10300C9C10300C9C1030000000000C9C10300C9C1030005
:20C06000C9C10300C9C10300C9C10300C9C10300C9C10300C9C10300C9C10300C9C1030058
:20C08000C9C1030065C30300C9C10300C9C1030085C30300C9C103008DC30300C9C1030016
:20C0A000C9C10300C9C1030000000000000000000000000000000000000000000000000066
:20C0C0000348854600F0DCF80048004745E50300F03B00200648704502D1EFF3098101E05C
:20C0E000EFF30881886902380078024A10470000FDFFFFFFA5C20300401E00BF00BF00BF90
:20C1000000BF00BF00BF00BF00BF00BF00BF00BF00BFF1D170470000401E00BF00BF00BF54
:20C1200000BF00BF00BF00BF00BF00BF00BF00BF00BFF1D170470000056885F308884068B2
:20C14000FF2464B2EFF30585002D01D1A64600472546064621273FBAF0B4002400250026FD
:20C160000027F0B4F92040B2004700000948704502D1EFF309800AE0EFF308800649074A6A
:20C180001268884201D8904201D88D460020044B18470000FDFFFFFFF03B0020C82C0020DD
:20C1A00001C303000321094802680A430260084802680A4302600748804707480047FEE730
:20C1C000FEE7FEE7FEE7FEE7FEE700002405004054050040ADC30300C1C0030030B50B46B7
:20C1E000014600202022012409E00D46D5409D4205D31D469540491B2546954040191546D9
:20C20000521E002DF1DC30BD03460B439B0703D009E008C9121F08C0042AFAD203E00B78A8
:20C220000370401C491C521EF9D27047D2B201E00270401C491EFBD270470022F6E710B5F6
:20C2400013460A4604461946FFF7F0FF204610BD30B504460020034600E05B1C934203D2DB
:20C26000E05CCD5C401BF8D030BD0321001D401E037812021A43491EF9D51046704700007C
:20C28000064C0125064E05E0E36807CC2B430C3C98471034B442F7D3FFF716FF34F4030000
:20C2A00054F4030010B50C46002802D00120086010BD2168002911D01048421A814212D0E0
:20C2C0003C2A0DD201223C303C310B7803701346521C401E491E3C2BF7D904E00E200BE067
:20C2E0003C22FFF791FF00223C21044801F084F90249891E08800020206010BD827F002019
:20C3000000F000F8BFF34F8F04490348C860BFF34F8F00BFFDE700000400FA0500ED00E0E2
:20C320008307FF22DB0E9A408907090E994000280BDA0007000F0838830808489B00181806
:20C34000C36993430B43C3617047830804489B001B181868904308431860704700ED00E073
:20C3600000E400E010B506490020086048608860C860034940390860486002F0C1FE10BD52
:20C380004011014010B502F051FE10BD10B506484068002805D08047002801D000F06EFA68
:20C3A00010BD01F069FF10BDAC2C002010B501F0ADFF002805D01F491D484860C8131E497C
:20C3C00088611E48018CC9B201290BD1828C120708D1028D1206120F042A03D1828D12060F
:20C3E000120F0AD0012921D1818C09071ED1018D0906090F0A2904D007E0114A0121916009
:20C40000F5E7828D1206120F05D00D290ED1808D0006000F0AD10B480168012904D00A4904
:20C42000016001680129FCD1C021416110BD0000DFFF07C000050040006C0040C00F00F096
:20C440000006004000EC06407593000030B47446641E2578641CAB4200D21D46635D5B00E2
:20C46000E31830BC184702E008C8121F08C1002AFAD170477047002001E001C1121F002A49
:20C48000FBD17047F7B584B00025168807461580406B1446002813D003780598032E51D317
:20C4A0000221017021881122491C89B2218042542188491C89B2218043542088401C208010
:20C4C000386B00281DD005462088059902461232B24237D811220A5420881022401C80B28B
:20C4E00020800A542088401C20800F202A5C2388401ECA54228840B2521C22800028F5DA1B
:20C500000025384620300290807B002806D033462246059901F024FF050014D10298407BCB
:20C52000002806D032462146059800F01BFC050009D1B878002823D0059886462088001D22
:20C54000B04202D90C2007B0F0BD684679DF0028F9D1218803207246505420881921401C20
:20C5600080B22080115420887146401C80B2208041186846008802F003FE218840182080D4
:20C58000F878002817D0218803230A46FB56C91C0598B142D6D80221815421880122491C60
:20C5A00089B2218042542188491C89B2218043542088401C20807868002817D02188002329
:20C5C000C3560A46C91C0598B142BBD80221815421880A22491C89B2218042542188491C38
:20C5E00089B2218043542088401C2080388900280AD0009438460196062202210830059B95
:20C6000002F045FE05009ED1388A00280AD0009438460196072203211030059B02F037FEB0
:20C62000050090D1388B00280AD0009438460196152214211830059B02F029FE050082D161
:20C64000386A002806D033462246059900F058FF0500D8D1786A002806D033462246059967
:20C6600001F0FEFF0500CED10298007B002807D0334622463846059902F0E6FB0500C2D1AC
:20C680003878002807D0334622463846059902F01BF80500B7D1284655E7000010B50446A3
:20C6A0000E4890B08179684681700D490180382101A8FFF7C2FD0221684601710021817167
:20C6C000C471012181810490002101A800F09CFA002801D000F0D2F810B010BDCC310020C0
:20C6E00030150000F0B5284C8BB0A078002839D118212648FFF7A1FD2046C078234C0025EA
:20C700000126002838D02746483700950195029510226946F81D0395FFF79AFD002823D0DE
:20C72000F81D089009976846067509A804906846067708A806900420FFF7B0FF257002204D
:20C74000207204A8E0602820208265820F4873DF002801D000F092F801200D494005C8608A
:20C76000094886700BB0F0BD0520FFF797FF2670676025722582E8E70620FFF78FFF2570B0
:20C7800065602572DFE70000642C0020B431002000050050F0B50546087A0E4685B08107EA
:20C7A0000AD003221146284600F00AFC002801D000F064F805B0F0BD2849009001F004FD25
:20C7C000010011D1254C7168143C009A6069FFF71BFD009801F0C6FC010005D169461F4833
:20C7E00001F0CEFC010003D0284601F0B3F8E1E7042001900098800802906069039001A86C
:20C8000001F072F807000BD0092F10D0606901F073FC010002D0284601F09CF83946E3E78B
:20C82000307A2169401820616069A061C2E7307A21694118216160780028BBD06089401E97
:20C840000004000C6081B5D1284600F081FB002801D000F013F820896081ABE7782C0020B3
:20C86000BFF34F8F04490348C860BFF34F8F00BFFDE700000400FA0500ED00E00EB5002181
:20C88000029000916A4601910148FFF7E9FF0EBD0140000038B50C46E268064B92009D589F
:20C8A000097862680092024620460C306369A84738BD00008031002070B50F4B05241D78F3
:20C8C0005E78AE4215D01D781C789E88B44201DA641C00E000241C705C88DE686C43A419E7
:20C8E00004609B68E800C418A4880C80185800241060204670BD0000242C0020F7B5244C32
:20C9000082B060880E4681423FD800256846214F057000F045F922786078A188884201DAA9
:20C92000401C00E00020C0B2904204D16846007800F054F927E065786078884201DA401C62
:20C9400000E0002060706846007800F047F9BD4219D0A068EF000499C151029900290CD083
:20C96000002E0AD0608832464543E0682818FFF74BFCA0683818868002E000213818818050
:20C98000002005B0F0BD0420FBE70920F9E70000242C0020FFFF00000EB504E0684681883A
:20C9A000029A0098904702AA01A96846FFF784FF0028F3D00EBD000030B5CB0008339DB2FF
:20C9C00093070024002B01D0072030BD044B9A605219DA605C701C7058809980002030BD45
:20C9E000242C0020094B9B68002B07D0002A07D0002805D00068037C002B03D008207047AC
:20CA0000072070474174426100207047342C002010B50446082902D00020FFF72FFF2168AA
:20CA20006068884710BD00001CB501910090034A08216846FFF762FF1CBD000011CA03006D
:20CA4000FFB59007002581B014460E46002832D11B4F002C31D002F03BF904987861032007
:20CA6000387033461821224600204B43BC601834C10089180D704D708E704C601C19401C07
:20CA80000328F5DBFD607D7001240E48BD702405046003211420FFF743FC0B4804600B4C81
:20CAA0000198A06003211120FFF73AFC60683861002005B0F0BD0720FBE7BD60FBE7000071
:20CAC000342C002080E200E000E100E000150140FEB50D461B4917468968044600292AD058
:20CAE000002C28D0052D01D20720FEBD6069002821D0607C012820D0002602F08BFBC000F6
:20CB00001049019089684018694602F0ADFB002815D0012101700C49446049680830E2C075
:20CB2000084901988968411868460078487002F0BFFA0020FEBD0820FEBD2E46DDE704201E
:20CB4000FEBD0000342C002000150140F8B5134D0446A96800291CD0002C1AD060690028C0
:20CB600017D00026267402F055FBC700A8686946381802F079FB00280DD002210170446053
:20CB8000A868391868460078487002F091FA3046F8BD0820F8BD0420F8BD0000342C002078
:20CBA00030B5EFF3108172B6094A54680123002C04D00370002900D162B630BD5360054B4D
:20CBC0001D68054C254015601C6000220270F1E7C02C002080E100E0FC06FFBC08494A68B0
:20CBE000002A0CD000280AD1EFF3108072B60A68044B1A6000224A60002800D162B67047C3
:20CC0000C02C002000E100E0F0B50C4693B01F216A461180072600279180002809D0C178ED
:20CC200049070DD502A9FFF72DFC002809D102AD01E000251780002C0ED0E078002802D04E
:20CC4000304613B0F0BD01AA0AA92046FFF71AFC0028F6D10AAA02E0684600228780684614
:20CC60008088C3B268460088C1B2284672DFE8E770B5054601461C220E48FFF7C5FA0E4CA6
:20CC8000002626702968002906D00822201DFFF7BBFA201D7ADF02E00748001D7BDF0028D0
:20CCA00007D1401E60806670044A00210448FFF799FE70BD70300020002C0020B1F1030062
:20CCC000BCF30300F8B5214C028800271E4DE689102A15D01E49112A21D0122A2DD0502A98
:20CCE0001CD1C288801DB24218D14289022A15D1427B037B10021843C007C00F0CD112E099
:20CD00008188698001461048082218310C30FFF77BFA6F70002E01D100F03AFCF8BD00208E
:20CD2000C04368806F700868FFF710FF0028F5D0A1690029F2D08847F8BD08228118024841
:20CD40000C30FFF761FAE7E7002C002070300020BCF3030010B502480068FFF7F7FE10BD8B
:20CD6000BCF303007CB5054608880C460930904201D90C207CBD684671DF0028FAD12188BF
:20CD80000820685420881B21401C80B220802954208800A9401C80B22080401906220131EE
:20CDA000FFF732FA20886946801D80B220800978002900D0012129542088401C20800020AE
:20CDC0007CBD0000F0B585B00A4605002DD02888184988422BD018480078002827D0164CBF
:20CDE0001020641C2070072060700127A7700321684601820026E11C104602F0D0F90146ED
:20CE00006846008A0918684601820096019602960396298A01808770868004A80394029024
:20CE200028886946A6DF05B0F0BD0E20FBE70820F9E70000FFFF0000142C002030B585B01C
:20CE40000D46040039D0002D37D06868002834D00020C0431A4B20800FCB049301AB07C333
:20CE600018486946088001A8811E63DF002822D1221D69460120A0DF00281CD1684680782D
:20CE8000A071204600F084FE002814D1204600F0E7FC00280FD12946204600F0E1FE00288F
:20CEA00009D16868A062A868002800D0E062064901200870002005B030BD0E20FBE70000C2
:20CEC000C0F3030030150000142C00203EB5002828D0002926D0826A002A23D00A88102AF0
:20CEE00021D0112A30D0502A1FD0512A1AD10A460446891D0878022814D14888238A984211
:20CF000010D1907B04280DD006280BD0052809D02046891C01F01EFD002803D0E16A002987
:20CF200000D088473EBD898810E0CB8802899342F8D108226B461A700A7C1A72123101918E
:20CF4000826A694690473EBD0021C94301803EBDF0B585B00A46050029D0288816498842BA
:20CF600027D016480078002823D0144C1120641C20700127684607820026611C104602F0DE
:20CF80000EF901466846008A0918684601820096019602960396298A01808770868004A87E
:20CFA0000394029028886946A6DF05B0F0BD0E20FBE70820F9E70000FFFF0000142C00208C
:20CFC00030B585B0002822D00388134CA34220D0124B1B78002B1CD0104B10255B1C1D70C3
:20CFE0005970002401259A70032269460A820094019402940394028A0A808D708C8004A992
:20D000000291039300886946A6DF05B030BD0E20FBE70820F9E70000FFFF0000142C002013
:20D0200010B50446FFF74EFE21460348FFF74EFF204601F0D3FB10BDCC3100201F4930B54E
:20D040000A4608323CCA8BB0059206AA38C249680991002805D005A818DF002801D0FFF7E9
:20D060000DFC0F20800313DF002801D0FFF706FC134B4822134909A801F072FF002801D0E2
:20D08000FFF7FCFB01216A46084601F03DFF002801D0FFF7F3FB012069460873684601F08F
:20D0A00029FF002801D0FFF7E9FB074801F072FF002801D0FFF7E2FB0BB030BDA4F30300B6
:20D0C00045EF0300B82E002025F0030038B50068401C19D00024684600F04AF9009801784B
:20D0E000012910D1418800290AD08168032000038068002200F080FA00994988814201D1D7
:20D10000012400E00024204638BD000070B511DF002801D0FFF7B2FB0E4900200A680D4B99
:20D12000012180330C468440144204D0C506ED0E0C46AC401C60401C2028F3D303242403A2
:20D14000A06813DF002801D0FFF798FBA06800F00BF970BD00E100E008B5684600F008F90D
:20D1600000980178A52904D00079AA2801D0002008BD012008BD10B500F0F4FD002803D173
:20D1800000F0D6FA002815D0642001F0EDFA00F0AFFD002801D0FFF771FB00F0E3FD002877
:20D1A00001D0FFF76BFB00F0A7FA041E01D0FFF765FB204610BD000000B587B014220749C3
:20D1C00001A8FFF721F80598009001A80FC800F013F802F0CBF8002007B000BDDCF30300D4
:20D1E00010B500F001FC002805D100F0B9FE044602F0BCF8204610BD0FB4F8B5684600F0A7
:20D20000B7F86846027E418B0123324CFF253248002A12D0012A16D0032A2AD00021022A94
:20D2200036D0052A46D0042A4CD0062A01D104202070F8BC08BC04B01847418009998160D4
:20D240000370057110E04180089A07998918099A89188160A521017005710799C16008991D
:20D26000426101610A99816123701B4800F064F8DFE700990A7802704A8842808968816029
:20D28000AA2101710799C1600899016109990BE0009A1678A52E09D0067056884680926818
:20D2A00082600571C16001614161DDE7418081600570F6E700F02CFE002801D0FFF7DEFA58
:20D2C0000320B5E7418081600570009909790171CBE70000542C00208C3100200EB5084AA7
:20D2E0006B4607CA07C301F05BFC002806D1FF20044980024860684601F072FC0EBD00002D
:20D30000D0F30300582C002038B50446684600F02FF8009801782170418861808168A16071
:20D3200001792171C168E16001692161416961618069A06138BD000010B504461C210948A3
:20D3400001F024FC002801D0FFF798FA00231C222146044801F058FC002801D0FFF78EFA6B
:20D3600010BD0000582C002010B5FEF7E5FE10BD014901607047000000FC030070B5184CE8
:20D38000182221780F2051430A19164916795369121D4D68012E0FD0032E0CD10120000702
:20D3A000006981B21846FEF719FF401928DF002801D10121A17070BDA802556851692D1A44
:20D3C000091892681818101801229202954202D2AA0829DFEBE7FF22013229DFE7E70000C2
:20D3E0008C3000201C2C002018225043054A00218018017181604161032281610261C16094
:20D40000704700008C300020F8B5124C069E65780A2D1DD027787D19EDB20A2D01D30A3DA3
:20D42000EDB218277D432D192871AA6103C9EE60AB6069612861A1780020002904D1FFF7BF
:20D440009DFF112800D100206178491C6170F8BD0420F8BD8C300020F8B52348C168002923
:20D460003ED00E6821494C680769C078E11B0D022D0AED1C002814D101201D4A00045060CE
:20D480001B4A403A50601B49400008601A4908601A49012008602F20FEF73EFE124901203E
:20D4A000C870B54200D23546E81900020F4B000A403318600D4A5168001B091B0902090A31
:20D4C0000002000AC91C814209D9506818602F20FEF722FE01200749400480390860F8BD97
:20D4E00001F0F6FBF8BD0000342C0020001501404013014080E200E000E100E000100140D7
:20D50000F8B50646108814468446801D0D46984201D90C20F8BD32880720062AFAD31927B3
:20D52000FF01184BBA4201D99A42F3D171880629F0D3B94201D99942ECD19A4203D0994230
:20D5400001D08A42E6D805216046295420881221401C80B2208029542088401C80B22080CB
:20D560004119308801F00CFE2188401880B220804119708801F004FE2188401820800020C5
:20D58000F8BD0000FFFF000010B5FFF777F910BDF8B5164800F0ACFE144D00260C3D144C0B
:20D5A000002807D0616900291CD001206A461070684616E02878002805D06169002911D027
:20D5C000684606700DE0687800280DD0A168094800220068FFF77CFA002803D0A1690029D7
:20D5E00000D088472E70F8BD6168F0E70C2C002070300020BCF3030010B50446002A02D0C4
:20D600001088002210E00A48FBE7030A00020343A05C584003061B0F43401803584083B2A5
:20D620001806C00C5840521C8A42EED310BD0000FFFF000010B586B0142101A8FEF7FDFDDA
:20D64000002468460471084881886846C1800748C06804900598009001A80FC8FFF7CCFDC4
:20D66000204606B010BD00008C2C00209433002000B587B00321684601710B4881886846C8
:20D68000C1800A484168029181680391C0680490059800900A46049B02990198FFF7ACFD93
:20D6A000002007B000BD00008C2C00209433002000B587B00121684601710D4881886846DD
:20D6C000C18003200003806805900A484168029181680391C0680490059800900A46049B83
:20D6E00002990198FFF788FD002007B000BD00008C2C00209433002000B58BB004A8FFF796
:20D7000003FE089800280DD0079800280CD007990A98401801900021089800918008029029
:20D72000684618DF0BB000BD032000038068F1E700B58BB004A8FFF7E7FD0898002810D0C8
:20D74000079800280FD007990A984018032100910F2102908903089801918008039068468B
:20D7600018DF0BB000BD032000038068EEE7000070B505000BD000223C210B48FFF73CFF4F
:20D78000094CA41E2188884203D00B2070BD0E2070BD3C2204492846FEF736FD2088401C34
:20D7A0002080002070BD0000827F002070B515460A4603281FD004281CD1124C002906D0FB
:20D7C000E0881149884215D0132176DF0EE0284600F092FC002801D0FFF750F8A069A8424B
:20D7E00008D1012203210948FFF7EAFB002801D0FFF744F870BD0121104600F0C3FF024613
:20D800000121F0E7642C0020FFFF0000CC31002000B587B01422064901A8FEF7F5FC0598A7
:20D82000009001A80FC8FFF7E7FC07B000BD000014F403001FB50323019090080390009337
:20D840000291684618DF04B010BD1FB5012301909008039000930291684618DF04B010BD0F
:20D8600030B58FB005461C216846FEF7E6FC69460878082108431022104369460870002404
:20D8800001940394049405940694A87908A98870144869460884601C00070794000F0C7780
:20D8A00010304877887FF9210840F721801C084010430121084369468877142109A8FEF7BB
:20D8C000BCFC08A8099007A80A9069468C851720CC8508860D942B46A888103309AAA2DF6F
:20D8E0000FB030BD3115000070B5050004D0287A800703D0102070BD0E2070BD144C60784C
:20D90000032803D0042801D0052801D0082070BD6868E1688600A0688019884204D90020B2
:20D92000C043A0600C2070BD00F0D2FA0028FAD1A9683246A368206901F066F90028F2D184
:20D94000A1688919A160E2689142ECD0092070BD8C2C002010B50A4604460321104600F04B
:20D9600011FF024603212046FFF72AFB002801D0FEF784FF10BD000010B50948407807286F
:20D9800001D0082010BD07480068FFF7DFF8002801D0FEF773FF04488068804710BD000015
:20D9A0008C2C002010F40300E433002010B50D4C6078052813D1E168A06888420FD1062029
:20D9C000607000F085FA002808D12069E168406800F088F8002801D10721617010BD082035
:20D9E00010BD00008C2C0020FEB5184E6B463046183007C807C3164C0025A5702146A58039
:20DA00001831684601F0ECF8002801D06570FEBD03200F4900038068183148600D4A0021E2
:20DA20000A48FEF7DFFF002801D0FEF727FF0F21002289043068FFF74BF8002801D0FEF70F
:20DA40001DFF0120A56060700020FEBD10F403008C2C0020ADDE030010B50A4C0820A16820
:20DA6000002900D010BD61780429FBD1A178064800F04AF8002802D00021A17010BD052156
:20DA8000617010BD8C2C0020A4330020F8B5134C07466078032804D0042804D0082528464E
:20DAA000F8BD04206070A068002801D00820F8BD00F00EFA0500FAD178688600A0788119FF
:20DAC000402901D90920F8BD054AB96810183246FEF79AFBA0788019A070E0E78C2C00202B
:20DAE000A433002010B50022FFF786FD054A5178127809021143884201D00B2010BD00201B
:20DB000010BD0000A831002070B500250C290ED304464318008941000919581A0A38C2B226
:20DB20001748022A027002D30A318B4201D2092070BD1448FEF768FB1348144902888A4220
:20DB400002D02388934218D14088884202D06188814212D10D4A0323521E20891B03A842F9
:20DB60000BD9690009194989914204D09E896D1CB6B2B142F3D1002070BD0B2070BD000049
:20DB8000602C0020A831002080100010FFFF000030B58FB005461C216846FEF74EFB6946FB
:20DBA00008780421084369460870002401940394049405940694A87908A98870144869465E
:20DBC0000884601C00070794000F0C77103048778A7FF9200240F720921C0240EF2002404E
:20DBE000012002438A77142109A8FEF726FB08A8099007A80A9069468C851420CC8508865D
:20DC00000D942B46A888083309AAA2DF0FB030BD32150000074910B5084618380161022128
:20DC20004170C168183000F0B1FF002801D0FEF725FE10BDA42C00200149486170470000AA
:20DC40008C2C002000B587B00620694608710598009001A80FC8FFF7CFFA07B000BD0000D2
:20DC6000F0B58FB00F4605461C216846FEF7E5FA68460178022631430170002401940394DD
:20DC8000049405940694A97908A88170174968460184601C0107090F6846103107940177C5
:20DCA0000020014668464177817FF9200140F720891C0140EF2001400120014368468177E5
:20DCC000142109A8FEF7B9FA08A8099007A80A9068468685C48506860D972B46A8882033FE
:20DCE00009AA6946A2DF0FB0F0BD000034150000F0B589B06846FFF707FB039800282AD04B
:20DD000001210903069A4018904226D9501A45081046039A0C46871802466800161800197A
:20DD20000790032000038068039988420DD2611908460422FFF789FD00280CD121460422FD
:20DD40000846FFF782FD002805D1BA1B2B463046079900F033F809B0F0BD039A0698FFF7F4
:20DD600074FDF8E730B58FB06846FFF7CDFA0398002814D001210903069A4018904214D938
:20DD8000501A43081046039A5C0082180019611803242403A468039DAC4202D20E200FB0AA
:20DDA00030BD121A00F00AF8F9E703200BAB07C3039880080E900BA818DFF0E7F8B51C4684
:20DDC00017460D460646FFF735FD002817D001200003854207D92346291B301B1A46FFF7F7
:20DDE000EDFF00280BD13A4629463046FFF72DFD002804D13A4629463046FFF71BFDF8BD89
:20DE000070B542682248146853689168D26804604360C26081600078440701D5840705D15B
:20DE20009C0703D18C0701D1940701D0062070BD5B189A18174D0F239B02EA60994206D8EC
:20DE40000321090389681B01591A914201D20C2070BD0F4C10495034216010496160C10778
:20DE600001D00F4804E0800701D50E4800E00E48A0606878012802D00826304670BD00F011
:20DE800027F80600FAD12168E8688847F5E70000943300208C2C002015DC030011D803006F
:20DEA000B1D6030071D6030035D6030000B5074987B0012008700520694608710598009031
:20DEC00001A80FC8FFF798F907B000BD8C2C002010B50D480078002801D0082010BD0B4C18
:20DEE0002068FEF733FE002801D0FEF7C7FC0F21002289042068FEF7EBFD041E01D0FEF797
:20DF0000BDFC204610BD00008C2C002010F4030010B5114C01202070E0881049884206D002
:20DF2000132176DF00280FD0FEF7A8FC0CE0A078002809D074DF002801D0FEF79FFC1520A2
:20DF400000F044FC0020A070FEF704FF002801D0FEF794FC002010BD642C0020FFFF000050
:20DF600030B5404D87B000242C702C71152000F025FC162000F022FC152000F027FC162093
:20DF800000F024FC384800F0ABFF002864D13748FFF752FE00F09AF800285DD13448FFF7EB
:20DFA000E7FB00285AD0684671DF002801D0FEF765FC69464878401C4870002070DF0028C6
:20DFC00001D0FEF75BFC112069460872072229A102A87CDF002801D0FEF750FC00940C21D7
:20DFE00068460194018018214180FF2184809131C1807ADF002801D0FEF740FC08206946E2
:20E00000009408801D4801901D48029018483038FEF714FF002801D0FEF730FC1C21684622
:20E02000FEF70BF9174801900120800302900094032168460173C4810474134806900594A0
:20E040006846FEF715FE002801D0FEF717FC00F0B5FEFEF747FB002007B030BD0120E870F2
:20E06000B1E70000642C002021D00300ADD70300FC310020446675546172670045EA0300B1
:20E08000D7EE0300CD0C000089D5030010B50E4900234A788C78A24212D0521CD2B24A7007
:20E0A000022A00D14B704A78074B920018339A580260086910180002000A0861012010BD67
:20E0C0000360002010BD0000342C00200748002101700848064A02608160C16001610822FF
:20E0E000416142608161084670470000852C00203832002058330020F0B5194A06469168A2
:20E1000000292AD057691020791A4907490F14680B4624254D436519B54206D1012495699C
:20E120008C4065400020956104E0491C4907490F8F42EED1491C4E07760F956901210C4626
:20E140009C4025420AD19368002B07D05B1E936053685B1C53603346F1E70420F0BD000031
:20E1600058330020054A2423117C1268491E4907490F594320315050002070475833002039
:20E1800070B500281AD0002918D00E4AD368002B16D05B1ED360936824265B1C936053697C
:20E1A00015681C467343EE1820330660E858641C08606007400F5061002070BD0E2070BDD4
:20E1C000042070BD5833002010B500291DD000220A60114A5368002B1BD0202817D85B1E00
:20E1E0005360D0682423401CD060106914684343E3180B60012383409169401C19434007A0
:20E20000400F91611061002010BD0E2010BD0C2010BD042010BD000058330020FEB50446D2
:20E22000087A82070ED08207920F04239B1A0022154604E04E683554401CC0B2521C9A4237
:20E24000F8D308720120009048680290087A800801906846FFF71AFC00280BD0022100F01B
:20E2600091FA024602212046FEF7AAFE002801D0FEF704FBFEBD0000F8B51C4C2078002828
:20E2800033D02069002807D00026E068002805D00025002E04D011E00126F6E70125F8E767
:20E2A000684652DF052804D0002804D0FEF7E6FA04E0012602E0216900988847002D10D1C1
:20E2C000608869460880A06861DF052804D0002804D0FEF7D3FA04E0012502E0E168A068DB
:20E2E0008847002EDCD0002DD3D0F8BDAC2C0020418805480288914204D34088814201D84A
:20E300000120704700207047042C00201048018CC9B2012917D1818C090714D1018D0906ED
:20E320000A0F03D1828D1206120F0ED0090F012903D1828D1206120F07D0032903D1808D88
:20E340000006000F01D000207047012070470000C00F00F0800701D0002070470120704762
:20E3600030B51588EC1C9C4201D90C2030BD02244C5513881C255B1C9BB21380CD5413888C
:20E380005B1C9BB21380012807D0022807D0032807D0042807D0072030BD002004E00120E7
:20E3A00002E0CC5401E00320C8541088401C1080002030BDF8B52C49C8680A690C780F79D9
:20E3C00089688646944600913EE00099E20055182A7836E0182353436968521CC918AB7843
:20E3E000D2B2934200D100220B78022B02D0032B27D123E04E680346014603E0B14204D036
:20E400000B46C96900291CD0F8E7002919D08B4208D1C069002805D1144F0126BE600026D8
:20E42000B44601270E68C969D961002909D00B689B190B6005E00174C06900E00021002898
:20E44000F9D169789142C5D12146641EE4B20029BBD1054962460A61C8600F71704501D0E5
:20E460000120F8BD0020F8BD342C002000100140F8B5044631480026C168009107784EE023
:20E480002E48F90080680D1843E0002C02D02046E4691FE02878182141436A68401CC0B230
:20E4A00051182870AA78904200D12E700A784868012A30D1027C002A2DD18A684260CA682E
:20E4C00082600A69C260496981611C490979002900D04660194943680A699C46991A09028B
:20E4E000174B090A994202D28268891807E06146511A09028268090A8A4202D9511A0160F9
:20E5000000E006604660012186600174C66100F0D7FD002CB9D1287869788842BAD138469D
:20E520007F1EFFB20028ABD10448C1680098814201D00120F8BD0020F8BD0000342C00201D
:20E54000FFFF7F003E48C169B12937D000243D480F2140698903884202D00020FEF78EF967
:20E5600001200007006901218902884202D00020FEF784F9344B354A05210020FEF760FA9C
:20E58000002801D0FEF77AF9FEF7A8FEFEF7E4FD0125002816D0FEF7EEFD002801D0FEF7A7
:20E5A0006DF920466840FEF749FD00F0B3FBFEF703FE00280CD0FEF761F909E00124002196
:20E5C000C161C4E720466840FEF738FD00F0A2FB03252D03002C04D1A868FEF777FD0028AF
:20E5E00019D11B4A01211B48FEF7FCF9002801D0FEF744F917480121002249030068FEF7E6
:20E6000067FA002801D0FEF739F9FEF7E9FD002801D0FEF733F9A868FEF758FD002806D02C
:20E62000FEF79AFD002802D1A868FEF76FFDBFF34F8F0A490848C860BFF34F8F00BFFDE754
:20E64000000500400010001029CA0300F02C002095F30300A4F303000400FA0500ED00E02E
:20E6600070B5144682880E4605462088111D4118921C994201D8FE2A01D90C2070BD521C18
:20E6800032542088FF21401C80B2208031542088401C80B220808119288800F071FD218852
:20E6A000401880B22080AA88002A09D0A968002908D08019FDF7A8FD2088A98840182080E6
:20E6C000002070BD072070BDF8B50F46017814460546012902D16878002806D02088821C58
:20E6E0009A422DD8012902D006E00720F8BD69784118891C994223D8181A801E86B2684610
:20E7000006802188B81C081869467DDF0028EDD12878022805D169460988B14201D809210F
:20E720000AE00821012805D16878B04202D86A46108001E06846068068460088FE2801D990
:20E740000C20F8BD2288401CB8542088401C80B22080395420886946401C20800988401827
:20E7600020800020F8BD000031B5054C04E0401E00902046FDF7C0FC00980028F7D138BD88
:20E78000E703000008280CD004DC002807D006280FD108E00B280AD00C280AD105E001208C
:20E7A0007047022070470320704704207047042901D006207047052070470000024A0321ED
:20E7C00080008018016070470007005001218140014881607047000000050050F0B50546A9
:20E7E000584C008800270122E688A7B0192810D023DC112842D00EDC022873D0102808D10B
:20E8000051498004C8601520FFF7E0FFA888E080A77027B0F0BD4D4C27461837132847D0D6
:20E820001428F6D1288A628D0021904200D139460023A888E21D86DF1BE0512863D00EDCA9
:20E840001A287BD01B28E4D1287A0028E1D1A770E068401EE06046D0FDF744FFD9E7522833
:20E860006CD05528D5D1A8790028D2D11321304676DF0028CDD0FEF701F8CAE7802069469B
:20E8800088803220E0601620FFF7A0FF012301AA06A9E088AADF002801D0FDF7EFFF207831
:20E8A000002801D1FDF71EFF0020C043E080B0E70722264912A8FDF7A7FC1022E11D0EA864
:20E8C000FDF7A2FC1C22394614A8FDF79DFC0EA80B901C4A14A81C320A9006AB8521304678
:20E8E0007FDFC6E70BE01422194906A8FDF78CFC0A9806AC00900FCCFEF77EFC89E70021A1
:20E90000304667DFB5E7A979002982D0A87B042803D0062801D00528A0D102290AD0684690
:20E920000272FF2083306946888102A93046A8DF9FE703E0022069460872F2E700F050FA6A
:20E9400097E70000642C002000050050FC310020FCF30300F0B58BB00C46054602216846A7
:20E96000017301268674228982826289C28220460C3000270690089768460184478407A879
:20E980000990A98A288808AAA5DF002804D0E96A002919D0884717E06846808BC007C00F4F
:20E9A00012D068460782288803A9A8DF002812D1217B20460D300B00FDF748FD09420F1C57
:20E9C00022242729402B4200FF20FE3069460882288803A9A8DF0BB0F0BD6A4617700BE001
:20E9E00006221BE069460E720190AA6A284690470020F0E76A4616706289022AF2D2EFE7FD
:20EA0000022000E00320694614E00420FBE70520F9E76189032905D2032208212846FEF785
:20EA2000CFFAD8E741780278080210436946888002D006200870D8E70720FBE70920E2E7DD
:20EA40000322EBE770B50D7804460120314A2B00FDF7FCFC0A252A3D06111C5156405A10FE
:20EA6000FEF7A4FF0421FFF78DFE0246042128E0FDF704FF70BDFFF74BFA002801D0FDF797
:20EA8000FDFEFEF779FF002806D170BDFFF740FA002801D0FDF7F2FEFFF7D4F870BD107165
:20EAA00048680078507170BD02201071486800780128F8D1FEF7D0FF0221FFF763FE0246FD
:20EAC00002212046FEF77CFA0028D1D170BD0320107170BD12792046012A06D0022A07D085
:20EAE000032AF6D1FDF756FE70BD00F05DFA70BDFFF794FB70BD507088881081508170BD28
:20EB000000205070108170BD20461169FEF75AF9DAE70000642C002010B506480378012B04
:20EB200003D1012901D102210170100001D0FDF7A5FE10BD542C002070B5124C1E466078CD
:20EB40001546012902D0032916D108E0052813D16369002B10D03246294604200BE002285B
:20EB60000AD1094840688047032060706369002B02D0324629469847280001D0FDF77EFE0F
:20EB800070BD00008C2C0020E433002008B50B460022014603200092FEF736FC08BD000021
:20EBA00070B500240C4E0D48746004704470847025462846FEF718FC6D1C0A2DF9D30749AF
:20EBC00034600020F43174608200401C8C500328FAD3002070BD00001C2C00208C30002045
:20EBE00010B5074B1A68032A08D00A609100054C00686050521C00201A6010BD042010BD4D
:20EC00001C2C002080310020F8B507461D4616460C460846FFF79EFB00280CD06019FFF760
:20EC200099FB002807D033462246394601200095FEF7EAFBF8BD1020F8BD0000F8B5224C9C
:20EC40000022A17801293ED10023A3700646214608781827054678434118022E03D0032E05
:20EC600031D10D202CE019484668761C46608968B6028E4214D343606078401E6070681C85
:20EC8000C0B220700A2801D30A3820701820684301191046091DFDF7FDFD2846FEF7A4FB31
:20ECA000607800280FD0A07800280CD1FEF766FB002808D0112806D021781822514309196A
:20ECC000091DFDF7E7FDF8BD8C3000201C2C002070B501240B49600408600B494010886047
:20ECE000094940398860094D6C602F20FDF714FAAC60074D00242F202C61FDF70DFAEC7037
:20ED000070BD000080E100E04013014000100140342C002010B5054A14210820FDF74CFE71
:20ED2000002801D0FDF7AAFD10BD0000002F002010B50121202805DA1A4A8140114201D1CB
:20ED4000194810BD8107C90E002808DA0207120F083A9208154B9200D218D26904E0820891
:20ED6000134B9200D2181268CA401106890F042911D200290FD002290DD00E494C68C30692
:20ED8000DB0E01229A40002C08D0400980000B5813430B5004E00448401C10BD06480260A3
:20EDA000002010BDFC06FFBC0120000000ED00E000E400E0C02C002000E100E00749812237
:20EDC000087840084000104030304006400E0870072048701020887070470000802C0020E5
:20EDE00070B5154C154DE088A84201D1082070BDE17800291AD0012308221149A9DF0028EE
:20EE0000F5D1022300221146E088A9DF0028EED12A460C21E088A7DF0A49884204D008280B
:20EE200002D0891C8842E2D1002070BD00231A461946A9DF70BD0000642C0020FFFF00004C
:20EE40003032002002300000FFB50746806A81B0144600283DD0002538462030009033E0BD
:20EE60000C20B96A68430E18B088801CFE2802D90C2005B0F0BD22880299401C88542088EA
:20EE80001622401C80B2208002990A542088401C80B2208002994118308800F071F921888E
:20EEA000401880B22080B288002A0AD0B16800290FD0029BC018FDF7A7F92088B188401887
:20EEC00020806D1C0098EDB2007BA842C8D80020CFE70720CDE710B5FDF7D0FC10BD0000CA
:20EEE000002803D00249C860002070470E207047AC2C00201CB5034901910091694660DFC2
:20EF00001CBD0000002C002070B50E460546144614211046FDF791F9012000212080216141
:20EF2000217326726572002D00D0A072002070BD10B5002902D00020FDF7A0FCFFF79CF977
:20EF400010BD000010B50021024A0846FDF7D6FC10BD000031EF030010B5FDF781FC10BDAB
:20EF600070B5002901D08C0701D0072070BD074C0125A16062800649636010DF0028F5D16F
:20EF800025701620FFF7D4FE70BD0000AC2C002059EF0300002803D00249086100207047E8
:20EFA0000E207047AC2C002030B5054687B00020009001900290039018486A46407910705E
:20EFC000174A106892680490684606920590087A0C2805D003221AE0FDF750FC07B030BD61
:20EFE0004C68204600F0D1F80190201D00F0CDF802902046083000F0C8F8039004A8FEF7A7
:20F00000FFFE0028EAD00121FFF7BCFB024601212846FDF7D5FF0028DED1DFE7642C002055
:20F02000F0F3030010B5FFF709FE10BDFEB51F4C00252769E06802906846FFF727F801905A
:20F04000FFF7B8F906460198002822D000230098E16817E00E680A46864202D9301A0860F4
:20F0600012E0801BF31800261660D668D169B446002E07D0FE183602360A566066469660FF
:20F08000D56115460029E5D12846E160FFF7F0F906E02846FFF7ECF9002801D1002E02D049
:20F0A0000298FEF7D9F900202071FEBD342C002001200249000508607047000000E200E0B1
:20F0C00010B50E4BD968002906D002680C68A24204D8A21A0A60C161D86010BD0B4604E0B2
:20F0E0000B46C969121B002904D00C689442F7D3A41A0C600260C161D86110BD342C00201B
:20F10000F8B51D4DEC68002C34D01C48002740682969401A0602360A2068B04218D8361A33
:20F12000C7192246107CE46900280FD0002010746B69002B07D0916950699847002805D09E
:20F14000FDF79CFB02E0516990698847002CE3D16978A878814206D1401CC0B2A870022835
:20F1600001D10020A87004490006800D18310F50FFF79EFFF8BD0000342C002000150140DF
:20F180000870000A48700220704710B50446FDF76CF80002E178000A0906084310BD0870F1
:20F1A000020A4A70020C8A70000EC8700420704738B51549154A488890420FD04A78144C13
:20F1C000521CD2B24A70237B934208D3091D75DF002803D0A169002900D0884738BD0025D4
:20F1E0004D70217C002907D03B2176DF002803D0A169002900D0884761690029EED06846D8
:20F200000570884738BD0000002C0020FFFF000070300020EFF30580C005C00D1AD0103880
:20F2200040B2002808DA0107090F083989080C4A89008918C96904E081080A4A8900891843
:20F2400009688007C00EC1400806800F012803D0032803D0022070470020704701207047C8
:20F2600000ED00E000E400E042788378521CD2B2934200D100220378934201D10020704795
:20F280000A70416840781822504308187047FFB583B016460C9D0D9C1F46022200950194A7
:20F2A000039800F00CF8002807D13B461022314600950194039800F002F807B0F0BDFFB5CE
:20F2C00083B0074600200C9C8646268805463AE07868A90042181188684681805188C180C2
:20F2E0000022694601A865DF002839D1684601780598814226D17046002801D0002200E0EF
:20F3000002222088891842180D998A4227D8714600290AD1401C80B22080069A049911542A
:20F320002088401C208001208646218806980A18694601A865DF002812D169462088097854
:20F34000401820806D1C3888A842C1DC704600280AD02088801B401E80B2FF2802D90C202C
:20F3600007B0F0BD069988550020F9E710B5084C48DF002801D0FDF781FAFDF70DFB207871
:20F38000022803D0032801D00428F1D110BD0000542C002002480149016070473546526E32
:20F3A00000060140D02C002001000007020000000000000000000000000000005030002040
:20F3C00023D1BCEA5F782315DEEF12120000000019EB03000000000000000000020000008A
:20F3E000000000000000000000000000000000000300000000000000000000000500000005
:20F40000000000000000000000000000000000007433002004000000000000000000000021
:20F42000000000000000000039EB0300000000000000000054F40300002C0020D00000003E
:20F4400066C4030024F50300D02C0020200F000076C40300000000000000000000000000DB
:20F4600000000000000000000000000000000000000000000000000000000000000000008C
:20F4800000000000000000000000000000000000000000000000000000000000000000006C
:20F4A000000000000000000000000000000000000000000000000000000000000000FFFF4E
:20F4C0000000000032000000000000000000000000000000000000000000000000000000FA
:20F4E00000000000000000000000000000000000000000000000000000000000000000000C
:20F5000000000000000000000000000000000000000000000000000000000000F0330020A8
:04F520000024F400CF
:20FC00000100000000000000FE0000000000000000000000000000000000000000000000E5
:020000041000EA
:0410140000C0030015
:040000050003C0C173
:00000001FF
